{
  "contractName": "dcsdedup",
  "abi": [
    {
      "inputs": [
        {
          "internalType": "bytes32",
          "name": "fileTag",
          "type": "bytes32"
        },
        {
          "internalType": "bytes32",
          "name": "head",
          "type": "bytes32"
        },
        {
          "internalType": "bytes32",
          "name": "tail",
          "type": "bytes32"
        }
      ],
      "name": "FIndexPut",
      "outputs": [
        {
          "internalType": "bool",
          "name": "flag",
          "type": "bool"
        }
      ],
      "stateMutability": "nonpayable",
      "type": "function"
    },
    {
      "inputs": [
        {
          "internalType": "bytes32",
          "name": "fileTag",
          "type": "bytes32"
        }
      ],
      "name": "FIndexGet",
      "outputs": [
        {
          "internalType": "bytes32",
          "name": "head",
          "type": "bytes32"
        },
        {
          "internalType": "bytes32",
          "name": "tail",
          "type": "bytes32"
        }
      ],
      "stateMutability": "view",
      "type": "function",
      "constant": true
    },
    {
      "inputs": [
        {
          "internalType": "bytes32",
          "name": "fileTag",
          "type": "bytes32"
        }
      ],
      "name": "UListGet",
      "outputs": [
        {
          "internalType": "address[]",
          "name": "users",
          "type": "address[]"
        }
      ],
      "stateMutability": "view",
      "type": "function",
      "constant": true
    },
    {
      "inputs": [
        {
          "internalType": "bytes32",
          "name": "fileTag",
          "type": "bytes32"
        },
        {
          "internalType": "address",
          "name": "owner",
          "type": "address"
        }
      ],
      "name": "UListPut",
      "outputs": [],
      "stateMutability": "nonpayable",
      "type": "function"
    }
  ],
  "bytecode": "0x608060405234801561001057600080fd5b50610575806100206000396000f3fe608060405234801561001057600080fd5b506004361061004c5760003560e01c8063484e6593146100515780638b9dfdbf14610081578063a3909c371461009d578063d05c2b73146100cd575b600080fd5b61006b600480360381019061006691906102d3565b6100fe565b60405161007891906103f0565b60405180910390f35b61009b6004803603810190610096919061043e565b61019f565b005b6100b760048036038101906100b2919061047e565b610217565b6040516100c491906104ec565b60405180910390f35b6100e760048036038101906100e291906102d3565b61024c565b6040516100f5929190610516565b60405180910390f35b60606001600083815260200190815260200160002080548060200260200160405190810160405280929190818152602001828054801561019357602002820191906000526020600020905b8160009054906101000a900473ffffffffffffffffffffffffffffffffffffffff1673ffffffffffffffffffffffffffffffffffffffff1681526020019060010190808311610149575b50505050509050919050565b60016000838152602001908152602001600020819080600181540180825580915050600190039060005260206000200160009091909190916101000a81548173ffffffffffffffffffffffffffffffffffffffff021916908373ffffffffffffffffffffffffffffffffffffffff1602179055505050565b600080600080868152602001908152602001600020905083816000018190555082816001018190555060019150509392505050565b6000806000806000858152602001908152602001600020604051806040016040529081600082015481526020016001820154815250509050806000015192508060200151915050915091565b600080fd5b6000819050919050565b6102b08161029d565b81146102bb57600080fd5b50565b6000813590506102cd816102a7565b92915050565b6000602082840312156102e9576102e8610298565b5b60006102f7848285016102be565b91505092915050565b600081519050919050565b600082825260208201905092915050565b6000819050602082019050919050565b600073ffffffffffffffffffffffffffffffffffffffff82169050919050565b60006103578261032c565b9050919050565b6103678161034c565b82525050565b6000610379838361035e565b60208301905092915050565b6000602082019050919050565b600061039d82610300565b6103a7818561030b565b93506103b28361031c565b8060005b838110156103e35781516103ca888261036d565b97506103d583610385565b9250506001810190506103b6565b5085935050505092915050565b6000602082019050818103600083015261040a8184610392565b905092915050565b61041b8161034c565b811461042657600080fd5b50565b60008135905061043881610412565b92915050565b6000806040838503121561045557610454610298565b5b6000610463858286016102be565b925050602061047485828601610429565b9150509250929050565b60008060006060848603121561049757610496610298565b5b60006104a5868287016102be565b93505060206104b6868287016102be565b92505060406104c7868287016102be565b9150509250925092565b60008115159050919050565b6104e6816104d1565b82525050565b600060208201905061050160008301846104dd565b92915050565b6105108161029d565b82525050565b600060408201905061052b6000830185610507565b6105386020830184610507565b939250505056fea26469706673582212204ec6ed673c95f668b25655b299685e79b0b6fac68143f2ee23d743b41a91c9a064736f6c63430008100033",
  "immutableReferences": {},
  "source": "// SPDX-License-Identifier: UNLICENSED\npragma solidity ^0.8.0;\n/**\n@title Contract for DCSDedup v1\n@author Zabreture\n@notice \nFIndex, UList and other function\n@dev    Gas consume is not considered\n */\ncontract dcsdedup {\n    mapping(bytes32 => MetaData) FIndex;\n    mapping(bytes32 => address[]) UList;\n\n    struct MetaData {\n        bytes32 head;\n        bytes32 tail;\n        // Split the fileID to save gas\n    }\n\n    function FIndexPut(bytes32 fileTag, bytes32 head, bytes32 tail) public returns(bool flag) {\n        MetaData storage metadata = FIndex[fileTag];\n        metadata.head = head;\n        metadata.tail = tail;\n        flag = true;\n    }\n\n    function FIndexGet(bytes32 fileTag) public view returns(bytes32 head, bytes32 tail) {\n        MetaData memory metadata = FIndex[fileTag];\n        head = metadata.head;\n        tail = metadata.tail;\n    }\n\n    function UListGet(bytes32 fileTag) public view returns(address[] memory users){\n        users = UList[fileTag];\n    }\n\n    function UListPut(bytes32 fileTag, address owner) public {\n        UList[fileTag].push(owner);\n    }\n}",
  "sourcePath": "D:\\Projects\\javascript\\dcsdedup-asiaccs2023\\contract\\contracts\\dcsdedup.sol",
  "compiler": {
    "name": "solc",
    "version": "0.8.16+commit.07a7930e.Emscripten.clang"
  },
  "schemaVersion": "3.4.9",
  "updatedAt": "2022-08-23T18:05:43.995Z",
  "networkType": "ethereum",
  "devdoc": {
    "author": "Zabreture",
    "details": "Gas consume is not considered",
    "kind": "dev",
    "methods": {},
    "title": "Contract for DCSDedup v1",
    "version": 1
  },
  "userdoc": {
    "kind": "user",
    "methods": {},
    "notice": " FIndex, UList and other function",
    "version": 1
  }
}